:020000040800F2
:1000000040BD0020FD790008D5040008D704000891
:10001000D9040008DB040008DD040008000000002B
:10002000000000000000000000000000DF040008E5
:10003000E104000800000000E3040008E5040008F3
:10004000177A0008177A0008177A0008177A00084C
:10005000177A0008177A0008177A0008177A00083C
:10006000177A0008177A0008177A0008177A00082C
:10007000177A0008177A0008177A0008177A00081C
:10008000177A0008177A0008177A0008177A00080C
:10009000177A0008177A0008177A0008177A0008FC
:1000A000177A0008177A0008177A0008177A0008EC
:1000B000177A00088B1E0008811F0008177A0008B5
:1000C000177A0008177A0008177A0008177A0008CC
:1000D000177A000895790008177A0008177A00083F
:1000E000177A0008177A0008177A0008177A0008AC
:1000F000177A0008177A0008177A0008177A00089C
:10010000177A0008177A0008177A0008177A00088B
:10011000177A0008177A0008071F0008177A0008E6
:10012000177A0008177A0008177A0008177A00086B
:1001300000F002F800F065F80AA090E8000C824494
:100140008344AAF10107DA4501D100F05AF8AFF271
:10015000090EBAE80F0013F0010F18BFFB1A43F0A5
:100160000103184714170300341703000A444FF023
:10017000000C10F8013B13F0070408BF10F8014B06
:100180001D1108BF10F8015B641E05D010F8016B4B
:10019000641E01F8016BF9D113F0080F1EBF10F8AF
:1001A000014BAD1C0C1B09D16D1E58BF01F801CBD2
:1001B000FAD505E014F8016B01F8016B6D1EF9D555
:1001C0009142D6D37047000000230024002500266A
:1001D000103A28BF78C1FBD8520728BF30C148BFAA
:1001E0000B60704764290FF0258678290FF05E8632
:1001F000732910F09980002070471FB51FBD10B5FE
:1002000010BD10F02BF91146FFF7F7FF00F008F8CA
:1002100010F049F903B4FFF7F2FF03BC07F062FBEB
:100220001CB507F013FB4FF4A06007F0AFFC4FF4D0
:10023000E13007F061FB00F003FA03F0DEF800F0B4
:1002400029FA01F073FD07F007FC09F005FE664C82
:10025000012266A120680AF063FF012264A16068A0
:100260000AF05EFF102463A0CDE9004023464FF45E
:100270002F7232213C2006F0D8FE64A00FF070FDF2
:1002800069A16CA00FF06CFD6FA172A00FF068FD6A
:10029000754E4FF4FA75754F4FF4784820E0A6F884
:1002A000008073A0CDE900401023C82296213C2095
:1002B00006F0BBFE284607F0F7FA71A0CDE9004032
:1002C0001023C82296213C2006F0AFFE284607F0F6
:1002D000EBFAD7F8A001002838D00020C7F8A00119
:1002E00007F08FF90028DAD11F203080284607F068
:1002F000DBFA67A0CDE900401023C82296213C20FC
:1003000006F093FE284607F0CFFA65A0CDE900403D
:100310001023C822AA213C2006F087FE07F03AF9F4
:10032000C20A0523AA21A420009406F0F3FD09F0D7
:1003300039FD98B360A0CDE900401023C8224621C2
:100340001E2006F072FE4FF6FF7517E00120C5E78C
:100350005CA0CDE900401023C8225A211E2006F0DF
:1003600064FEC82007F0A0FA5623E6225A211E2078
:10037000009506F02BFCC82007F096FA07F041F92B
:100380000028E5D110225A211E2009F08DFC4FF4DF
:10039000FA6007F089FA284602F0F3FF4FF47A700A
:1003A00007F082FA40F2E7344721204601F040FD91
:1003B00040F2CF21204601F079FD0121402007F0D5
:1003C00073FE042019F0A0FD13F03EFD002014F090
:1003D0003FFB12F0B1FF12F071FF0CF028FD01207D
:1003E00013F00CF9FBE70000B0000020303A0000E9
:1003F000313A000041525F494F545F436F6E74724F
:100400006F6C6C657220564E322E350041525F493A
:100410004F545F436F6E74726F6C6C657220564EF2
:10042000322E350D0A00000046656220313520323B
:10043000303139006275696C6420646174652069CB
:10044000732025730D0A000031343A33393A3239BA
:10045000000000006275696C642074696D65206934
:10046000732025730D0A0000560000200000214271
:1004700053442043617264204572726F7221000000
:10048000506C6561736520436865636B21200000D3
:1004900053442043617264204F4B202020200000F1
:1004A000534420436172642053697A653A202020C6
:1004B00020204D4200000000466F6E74204572728D
:1004C0006F72210053442043617264204661696C5D
:1004D000656421007047FEE7FEE7FEE7FEE7704730
:1004E00070477047704700000CB500224C480092DE
:1004F0000192016841F4803101604FF4A06301680A
:1005000001F4003101910099491C0091019911B940
:1005100000999942F3D10168890333D501210191F2
:1005200040490A6842F010020A600A6822F0030299
:100530000A600A6842F002020A604168416041684C
:100540004160416841F480614160416821F47C115F
:100550004160416841F4E8114160016841F08071F7
:10056000016001688901FCD5416821F00301416007
:10057000416841F0020141604168C1F381010229F3
:10058000FAD10CBD01920CBD254810B5016841F0AF
:10059000010101604168244A114041600168234A19
:1005A00011400160016821F480210160416821F45B
:1005B000FE0141604FF41F018160FFF795FF1C4968
:1005C0004FF00060086010BD154A10B55068194B17
:1005D00010F00C01184803D0042901D0082901D0DB
:1005E000036012E05168536801F470114FF0020487
:1005F00013F4803F04EB914102D053689B0301D573
:100600000E4B00E00B4B5943016051680A4AC1F39D
:100610000311121D515C0268CA40026010BD000047
:1006200000100240002002400000FFF8FFFFF6FE2D
:1006300008ED00E000127A000000002000093D00F3
:1006400038B50121242007F038FD4FF48074ADF84F
:10065000004010208DF8030003200C4D8DF802009F
:100660006946284607F041FB2146284607F0A7FBCC
:100670000420074CADF800006946204607F035FB22
:100680000421204607F09BFB38BD00000008014014
:100690000014014008B50121442007F00EFD1C2084
:1006A000ADF8000048208DF803006946364807F091
:1006B0001CFB0120ADF8000028208DF803006946DE
:1006C000324807F012FB08BD2DE9F041304C2F4FA6
:1006D0002D4D012608B1267001E02078A0B110212F
:1006E000284607F058FBB0B10821284607F053FB15
:1006F00088B10421284607F04EFB60B1012138463D
:1007000007F049FB012806D01021284607F043FBDB
:10071000012824D035E00A2007F0C6F80020207018
:100720001021284607F037FB80B10821284607F042
:1007300032FB70B10421284607F02DFB58B101218E
:10074000384607F028FB012807D01AE00120BDE851
:10075000F0810220FBE70320F9E70420F7E70821F6
:10076000284607F018FB01280BD10421284607F082
:1007700012FB012805D10121384607F00CFB00B916
:1007800026700020E3E70000001801400008014047
:100790001400002008B50121102007F08EFC4FF452
:1007A000C050ADF8000010208DF8030003208DF834
:1007B000020069467F4807F098FA7F480121C0F897
:1007C000B011C0F8AC1108BD70B57A48416821F489
:1007D00070414160416841F440514160764C0120D4
:1007E000C4F8AC01C4F8B001042004F5D67407F0D5
:1007F00044F800252560042007F03FF8656070BDCF
:100800006C4810B5416821F470414160416841F481
:1008100040514160684C0020C4F8B001C4F8AC01FC
:10082000042004F5D67407F028F8012060602060E9
:10083000BDE81040042007F020B870B55D480024E2
:10084000416821F470414160416841F400414160D8
:10085000594D0126C5F8AC61304607F00EF8C5F8D1
:10086000B061012007F009F807E0641CE4B2FA2C3B
:1008700003D9FFF7C5FF012070BDD5F82C01002872
:10088000F3D1C5F8B00170BD70B54B4C0025C4F86C
:10089000B0514848416821F470414160416841F4D9
:1008A00040514160C4F8AC51022004F5D67406F002
:1008B000E4FF01206060022006F0DFFF656070BD8C
:1008C00070B53D4C0026C4F8B0613A48416821F447
:1008D00070414160416841F4405141600125C4F8D4
:1008E000AC51022004F5D67406F0C7FF6560022003
:1008F00006F0C3FF666070BD2DE9F04105462D4846
:10090000416821F470414160416841F440514160C7
:10091000294E0027C6F8B0713C464FF00108E8099F
:10092000C6F8AC016806050E022006F0A6FFC6F860
:10093000B081022006F0A1FFC6F8B071022006F0D7
:100940009CFF641CE4B2082CE9D3BDE8F0812DE9DA
:10095000F047814617480024416821F47041416006
:10096000416841F400414160134E254627464FF04F
:100970000108C6F8B071022006F07FFFC6F8B0810A
:100980006006040ED6F82C0108B1641CE4B2012004
:1009900006F073FF6D1CEDB2082DEAD3B9F1000F1C
:1009A00004D0FFF771FF2046BDE8F087FFF788FF0E
:1009B000F9E700000010014000002242FFF7EABE04
:1009C00010B50446FFF700FF200AA02101EB40000C
:1009D000C0B2FFF791FFFFF730FFE0B2FFF78CFFE7
:1009E000FFF72BFFFFF7F0FEA120FFF785FFFFF7D2
:1009F00024FF0020FFF7ABFF0446FFF701FF20466E
:100A000010BD70B50D460446FFF7DEFE200AA0219A
:100A100001EB4000C0B2FFF76FFFFFF70EFFE0B23F
:100A2000FFF76AFFFFF709FF2846FFF765FFFFF7AB
:100A300004FFFFF7E5FEBDE870400A2006F034BF72
:100A40002DE9F04116460D460746002409E0E00076
:100A500025FA00F0C1B2381980B2FFF7D2FF641C4A
:100A6000E4B2B442F3D3BDE8F0812DE9F0410D4684
:100A70000146002004464E1908E00702301B401EC4
:100A800080B2FFF79DFF641C3844E4B2AC42F4D35B
:100A9000E9E710B5FF20FFF793FF55280AD055214D
:100AA000FF20FFF7AEFFFF20FFF78AFF552801D098
:100AB000012010BD002010BD70B515460E4604463D
:100AC00008E02046641CA4B2FFF77AFF6D1E06F80A
:100AD000010BADB2002DF4D170BD70B514460D46BA
:100AE000064606E029783046FFF78BFF761CB6B243
:100AF0006D1C641EA4B2F5D270BD000070B5064630
:100B00000024334D03E0641CE4B2C82C0FD802214A
:100B1000284607F02DFC0028F5D03146284607F07E
:100B2000E3FB002405E0641CE4B2C82C01D90020DA
:100B300070BD0121284607F01BFC0028F3D0284691
:100B400007F0D4FBC0B270BD38B5012141F20400FA
:100B500007F0B3FAE020ADF8000018208DF803008C
:100B600003201C4C8DF802006946204607F0BDF8B2
:100B7000E021204607F023F9174800214FF4827244
:100B80000180428081800222C280012202815202C1
:100B9000428138228281C181072101820C4C0146A9
:100BA000204607F0FDFA0121204607F075FBFF20E3
:100BB000FFF7A4FF38BD10B50749054C88812046D2
:100BC00007F0EEFA2046BDE81040012107F064BBB3
:100BD0000030014000080140080600200A2006F00D
:100BE0004CBE8348816941F01001816181480168F0
:100BF0004FF20F0291430160016843F20302114377
:100C00000160C16841F00201C160C16841F00801A2
:100C1000C160704770B57748016821F47041016088
:100C2000016841F440510160734C0120C4F88C010B
:100C3000C4F880010A2004F5C07406F01EFE0025E9
:100C4000E5600A2006F019FE256070BD70B56948A0
:100C5000016821F470410160016841F44051016074
:100C6000654C0020C4F88001C4F88C010A2004F50A
:100C7000C07406F002FE012525600A2006F0FDFD85
:100C8000E56070BD70B55B480024016821F47041D7
:100C90000160016841F400410160574D0126C5F82B
:100CA0008C61304606F0E9FDC5F88061012006F050
:100CB000E4FD07E0641CE4B2FA2C03D9FFF7C6FF99
:100CC000012070BDD5F80C010028F3D1C5F88001D2
:100CD00070BD70B5484C0025C4F880514548016886
:100CE00021F470410160016841F440510160C4F891
:100CF0008C510A2004F5C07406F0BFFD012020606D
:100D00000A2006F0BAFD256070BD70B53A4C002689
:100D1000C4F880613748016821F4704101600168BE
:100D200041F4405101600125C4F88C510A2004F5BA
:100D3000C07406F0A2FD25600A2006F09EFD266024
:100D400070BD2DE9F04105462A48016821F4704143
:100D50000160016841F440510160274E0027C6F848
:100D600080713C464FF00108E809C6F88C0168061E
:100D7000050EC6F880810A2006F07FFDC6F8807156
:100D80000A2006F07AFD641CE4B2082CECD3BDE81E
:100D9000F0812DE9F047814616480024016821F4CE
:100DA00070410160016841F400410160124E254626
:100DB00027464FF00108C6F880711E2006F05DFD41
:100DC000C6F880816006040ED6F80C0108B1641CD8
:100DD000E4B26D1CEDB2082DEDD3B9F1000F04D0D3
:100DE000FFF777FF2046BDE8F087FFF78EFFF9E7B2
:100DF0000010024000100140000022422DE9F041A5
:100E000015460E4604460027FFF704FF2820FFF78B
:100E100098FFFFF737FF200AFFF793FFFFF732FF36
:100E2000E0B2FFF78EFFFFF72DFF002408E0305DF2
:100E3000FFF787FFFFF726FF070003D1641CE4B22A
:100E4000AC42F4D3FFF702FF3846BDE8F08108B5A5
:100E500000218DF800108DF80100AC489DF80020AD
:100E6000435C491C1A44C9B28DF80020B829F5D357
:100E7000D0B2C043401C8DF80000B822A34948F20C
:100E80004700FFF7BBFF0222694648F2FF00FFF769
:100E9000B5FF002008BD2DE9F04115460F46044678
:100EA000FFF7B8FE2820FFF74CFFFFF7EBFE200A04
:100EB000FFF747FFFFF7E6FEE0B2FFF742FFFFF75D
:100EC000E1FEFFF7A7FE2920FFF73BFFFFF7DAFE61
:100ED00000246E1E09E0B44201D0012000E0002091
:100EE000FFF757FF3855641CE4B2AC42F3D3BDE8BA
:100EF000F041FFF7ABBEFEB50121102007F0DDF891
:100F000042F20200ADF8080010208DF80B0003201B
:100F10007F4E8DF80A0002A9304606F0E6FE022157
:100F2000304606F04CFF7114304606F048FFFFF7DC
:100F300058FE784D0024C5F8B4410A2005F5DA754D
:100F400006F0B2FC012028600A2006F0ADFC022564
:100F5000ADF8085028208DF80B0002A9304606F0A5
:100F6000C4FE0221304606F02CFF642006F09CFCF3
:100F70000422694648F24010FFF78DFF8DF80440C7
:100F8000694665A00EF0ECFE66A168460FF012F906
:100F900008B10120FEBD8DF8005048F24005012245
:100FA00069462846FFF72AFF01226946E81DFFF738
:100FB00072FF9DF80010602905D25CA00EF0D0FEF3
:100FC0000120FFF744FF0A2006F06EFC8DF8004078
:100FD000012269462846FFF711FF0020FEBD2DE9DA
:100FE000F147574E00244FF00A09307883B0401C77
:100FF000C0B2B0FBF9F209FB1201524DA0463070AD
:1010000009B10A2864D248F24E1A012203A95046B7
:10101000FFF741FF9DF80C004FF00007010748D093
:1010200000F00F01062944D2FF2088408DF804000B
:10103000C04340F0C00085F820004FF0010895F84B
:10104000201008FA04F0014226D030480422B830BB
:10105000694630F81400FFF71EFF95F830009DF840
:101060000110C0079DF8000000EB012105EB4400D2
:101070000AD0C1829DF802109DF8032001EB0221E5
:10108000C1F54871818107E081819DF802109DF8CA
:10109000032001EB0221C182641CE4B2052CCED3F3
:1010A000A9894FF0010819B9E88A08B98DF80C70C0
:1010B00037709DF80C0001060AD500F00F000628D5
:1010C00006D28DF80470012201A95046FFF796FE62
:1010D0009DF80C0000F08F0080280ED195F82000BC
:1010E000010602D520F0800005E04FF6FF71A981CE
:1010F000E98200F0E00085F820003078F02801D97E
:1011000086F8009004B04046BDE8F087EE3F020844
:1011100000100140000022424354502049443A2527
:10112000730D0A00393134370000000044656661F0
:10113000756C74205665723A25640D0A0000000033
:1011400015000020200000202DE9F04115460E4634
:1011500004460027FFF75EFDB220FFF7F2FDFFF720
:1011600091FD200AFFF7EDFDFFF78CFDE0B2FFF7E0
:10117000E8FDFFF787FD002408E0305DFFF7E1FDA3
:10118000FFF780FD070003D1641CE4B2AC42F4D346
:10119000FFF75CFD3846BDE8F0812DE9F0411546CA
:1011A0000F460446FFF736FDB220FFF7CAFDFFF7F2
:1011B00069FD200AFFF7C5FDFFF764FDE0B2FFF708
:1011C000C0FDFFF75FFDFFF725FDB320FFF7B9FD79
:1011D000FFF758FD00246E1E09E0B44201D0012043
:1011E00000E00020FFF7D5FD3855641CE4B2AC42A6
:1011F000F3D3BDE8F041FFF729BD08B500218DF814
:10120000001010B180208DF80000012269464FF4D3
:101210005060FFF799FF08BD7CB500258DF804509C
:101220000121102006F049FF0220ADF800004820FF
:101230008DF8030003206F4E8DF80200694630469A
:1012400006F053FD0221304606F0B9FD7414ADF8E6
:10125000004010228DF803206946304606F045FD17
:101260002146304606F0ABFDFFF7BBFC624CC4F8EC
:10127000B451642004F5DA7406F016FB01202060F6
:10128000642006F011FB0120FFF7B7FF012201A93E
:101290004FF45060FFF781FF9DF8041057A00EF047
:1012A0005FFD9DF80400000601D500207CBD0120F3
:1012B0007CBD2DE9F14F544F00244FF00A083878D7
:1012C00082B0401CC0B2B0FBF8F208FB12014F4ED6
:1012D0002546387009B10A2871D2012202A90020DE
:1012E000FFF75BFF9DF80800C1066CD000F01F00FF
:1012F00040F0C000DFF818A1DFF818B186F8200030
:101300004FF0010996F8201009FA04F0014249D083
:1013100041480422694630F81400FFF73EFF96F872
:1013200030009DF80210C0079DF8030000EB01207B
:101330001ED021F0ECFF52465B4621F0FBFF21F06E
:10134000B9FF06EB4405E8829DF801009DF8001006
:1013500000EB012021F0DBFF304A314B21F0EAFFA6
:101360000022304B22F0E4F821F0A4FFA88119E01C
:1013700021F0CDFF52465B4621F0DCFF21F09AFFC1
:1013800006EB4405A8819DF801009DF8001000EBD4
:10139000012021F0BCFF214A214B21F0CBFF21F09D
:1013A00089FFE882641CE4B2052CABD30125B28925
:1013B00000211AB9F08A08B98DF8081039709DF823
:1013C0000800C0060ED196F82000010602D520F0D4
:1013D000800005E04FF6FF71B181F18200F0E0007E
:1013E00086F820003878F02801D987F80080284650
:1013F000BDE8FE8F001001400000224243545020FF
:1014000049443A25780D0A001600002020000020EB
:101410007B14AE47E17AD43FB0400208D8817346CE
:1014200094F6D23F0000894030B50021FF4A0B46B8
:101430000124050602D5C2F88C4101E0C2F88C31C6
:101440004006000EC2F88031C2F88041491CC9B282
:101450000829EED330BD2DE9F0410025F34E2C468E
:101460002F46C6F88051C6F88C51C6F8B45106F51F
:10147000C076FFF7D9FF062006F0FFF9376001209C
:1014800006F0FBF90121316037604FF6FF70A6F5D9
:10149000C07600EA4404C6F88071C6F88011D6F818
:1014A00008210AB1641CA4B26D1CEDB2102DF0D35A
:1014B0002009C6F8B411BDE8F081FEB50646002447
:1014C0006D463046FFF7C7FF25F81400641CA4B230
:1014D000052CF6D300214C1CA0B20BE035F81130DE
:1014E00035F81020934203D925F8112025F8103043
:1014F000401C80B20528F1D3A1B20429EBD300210E
:10150000012035F81020401C114480B289B2042813
:10151000F7D30320B1FBF0F0FEBD2DE9F041C44F3D
:1015200006460D463878FFF7C8FF04467878FFF77F
:10153000C4FF348028800120BDE770B586B00C461A
:101540000546694604A8FFF7E8FF00282FD001A947
:1015500003A8FFF7E2FF002829D0BDF80C30BDF842
:101560001020934203D803F13200824205D39A42FD
:101570001FD802F1320083421BD2BDF80410BDF81F
:101580000000814203D801F13206B04204D3884200
:101590000FD8323081420CD2D01840082880BDF8D4
:1015A0000000BDF80410084440082080012006B067
:1015B00070BD0020FBE72DE9F04104469D480D4633
:1015C0000B46028004F10D0082B2193880B205F09A
:1015D00081FB05F10D0083B2193881B22246104615
:1015E00005F078FB6E1C04F10108B1B21FFA88F017
:1015F00001F0D8FAB1B2661EB0B201F0D3FA6F1E94
:10160000B9B21FFA88F001F0CDFAB9B2B0B201F068
:10161000C9FA29462046BDE8F041062205F0C0BBC4
:1016200070B5064683480C460280304601F0BAFA8F
:10163000751CA8B2214601F0B5FA641CA1B230466F
:1016400001F0B0FAA1B2A8B2BDE8704001F0AABAA8
:1016500070B57649D1F80411754C083441B194F84D
:101660002000010641D520F0800084F8200043E0EE
:1016700002006F4800F1080000F1160100F10C00B3
:1016800002D0FFF75AFF24E0FFF757FF08B3B4F981
:101690002C0022F0CFFA0546A08922F0E3FA616A15
:1016A00022F0F4FA294622F01FF922F0A3FAA081D1
:1016B000B4F92E0022F0BEFA0546E08A22F0D2FAF2
:1016C000A16A22F0E3FA294622F00EF922F092FAFA
:1016D000E08294F8200000060ED4C02084F8200098
:1016E000A089A082E08AE08306E00020A082E08357
:1016F0004FF6FF70A081E08294F8200000F0800097
:1017000070BD70B54A4C4C4D08342946606A22F0D1
:10171000BDFA22F053FA014604222820FFF790F97F
:101720002946A06A22F0B2FA22F048FA01460422C1
:101730002C20FFF785F9B4F92C1002223020FFF796
:101740007FF9B4F92E1002223220FFF779F994F8CC
:1017500030103420FFF755F9BDE870400A213520DC
:10176000FFF74FB970B53520FFF72AF90A2801D0E5
:10177000002070BD04212820FFF777F922F05AFAE3
:101780002D4D294622F024F9294C042108346062A9
:101790002C20FFF76AF922F04DFA294622F018F9B9
:1017A000A06202213020FFF760F9A08502213220DB
:1017B000FFF75BF9E0853420FFF702F990221C491E
:1017C00084F83000D02310B10A704B7001E00B7028
:1017D0004A70012070BD2DE9FF4F83B00E46DDE950
:1017E00010A8144907464FF47840DDF8509008805F
:1017F00012A01025CDE90050114C9346A02163881A
:101800002288282005F011FC0EA0CDE90050638845
:101810002288A021782005F008FC0BA0CDE900501B
:10182000B42163882288282010E0000000002242B2
:10183000180000205600002020BCBE4C78313A0031
:101840001A06002079313A0078323A0005F0EDFBB3
:10185000FEA0CDE9005063882288B421782005F0ED
:10186000E4FBFBA0CDE9005063882288C821282032
:1018700005F0DBFBF7A0CDE9005063882288C82182
:10188000782005F0D2FBF4A0CDE9005063882288CF
:10189000DC21282005F0C9FBF0A0CDE900506388C9
:1018A0002288DC21782005F0C0FBEDA0CDE90050B6
:1018B00063882288F021282005F0B7FB04233A46EC
:1018C000A0214020009505F025FB04233246A021ED
:1018D0009020009505F01EFB04235A46B4214020B9
:1018E000009505F017FB04230095B4219020069A7B
:1018F00005F010FB04235246C8214020009505F056
:1019000009FB04234246C8219020009505F002FB04
:1019100004230095DC214020129A05F0FBFA0423F1
:101920000095DC219020139A05F0F4FA00952188A7
:1019300003234A46602005F0EDFA07B0BDE8F08FBA
:101940002DE9F04F002489B025464FF6FF7001F0D5
:1019500018FDC5491F2064230880C448A02241689F
:101960001020CDE900012821084605F05EFB142176
:101970004FF478420846FFF71EFEBC4800210830AD
:10198000DFF8EC9280F820104162B84E0836012052
:101990007168884796F820000121B1EB901F4AD169
:1019A00020F0400086F8200005A8B28920F8242005
:1019B00000EB8402641C0025F18AE4B25180012C02
:1019C00006D0022C12D0032C21D0042C33D13EE0BF
:1019D00014214FF6FF720846FFF7EDFDB9F800003D
:1019E0004FF47842143880B2142122E0B9F8000094
:1019F0004E46143880B24FF6FF721421FFF7DBFD1C
:101A000070884FF47842143881B2142011E0B9F88C
:101A100002004E46143881B24FF6FF721420FFF7D1
:101A2000CAFD70884FF47842143881B23088143877
:101A300080B2FFF7C0FD0A2005F036FF6D1CADB285
:101A4000B5F57A7FA1D9FFF78DFE09B076E70024BE
:101A5000834688485F4600EB840610F8242070789F
:101A60003BF822103BF82030C91A00D5494207EB59
:101A7000820207EB800052884088101A00D540424D
:101A800049434043084421F042FC21F044FB21F04B
:101A900011FCB178F2781FFA80F837F8210037F896
:101AA0002230C01A00D5404207EB810107EB8202C9
:101AB00049885288891A00D54942404301FB0100F8
:101AC00021F025FC21F027FB21F0F4FB87B23846FA
:101AD00022F0C8F80646404622F0C4F8314621F00C
:101AE00077FF6549064688427EDD644886427BDC96
:101AF000B8F1000F78D0002F76D0641CE4B2032C2C
:101B0000A7D3BDF81800BDF8141080460E46401A41
:101B100022F090F8B9F800700446A7F1280022F0EE
:101B200089F8214621F054FF504C82460834606207
:101B300008EB060022F096F8514622F0A7F8064678
:101B4000384622F08FF8314622F06CF94FF0FF3121
:101B500022F00FFA22F032F8A085BDF81E00BDF881
:101B600016108346401A019122F064F8B9F8026019
:101B70008046A6F1280022F05DF8414621F028FFBA
:101B8000A0620199804600900BEB010022F06AF8F8
:101B9000414622F07BF88046304622F063F8414609
:101BA00022F040F94FF0FF3122F0E3F922F006F87D
:101BB000E085504622F002F8002800DA4042022870
:101BC00007DC009821F0FAFF002800DA40420228E2
:101BD0007EDD143E143F0024C846B1B2B8B24FF6C1
:101BE000FF72FFF7E8FC00E01FE014214FF4784299
:101BF0000846FFF7E0FC22A11020CDE90001B8F86B
:101C00000230B8F800201A21282005F00EFA1749F2
:101C1000083191F83000E8B3002081F83000D0B3EB
:101C2000124890210170D02160E0B9F80210B9F893
:101C3000000014391438002489B280B24FF6FF72C4
:101C4000FFF7B9FC4FF47842142125E079323A00CD
:101C500078333A0079333A0078343A0079343A00EC
:101C60006661632069733A00560000201800002066
:101C70001A060020BA4002083333733F6666863F77
:101C80005450204E65656420726561646A75737492
:101C90002100000024E025E00846FFF78CFC5649AF
:101CA000304621F0F3FF21F0A5FF80B2BDF82210ED
:101CB000BDF82030BDF81E20CDE90310CDE9012389
:101CC000BDF81C000090BDF81A30BDF8182000E0E7
:101CD0000EE0BDF81610BDF81400FFF77CFD54E6C9
:101CE00001209AE74548D0210170902141704CE6CF
:101CF00043491F204FF6FF740880204601F041FB46
:101D000040A11020CDE90001B9F80230B9F8002057
:101D10006E21232005F089F94FF47A7005F0C4FD97
:101D2000FFF7EFFC204601F02CFB8EE638B53B4D6B
:101D3000324CA8880834A0F5AA4110392DD0A0F55E
:101D4000C85163393CD00121112006F0B6F942F2A6
:101D50000900ADF8000010208DF803000320304C7E
:101D60008DF802006946204605F0BFFF0621ADF858
:101D7000001048218DF803106946204605F0B5FF94
:101D80001E491E31A1F10A00FFF7C7FBFEF716FE40
:101D9000FFF7E8FC18B3002038BDFFF7ACF868B1D6
:101DA000FFF73AFA1F48606014F8300FA97940F045
:101DB000800001F0010108432070ECE71A48F2E7C7
:101DC00000F053F91948606094F83000A97940F0A8
:101DD000800001F00101084384F83000DBE74FF692
:101DE000FF7001F0CEFAFFF7ABFDFFF78AFCFFF7BB
:101DF000B9FC012038BD00000000C84218000020D6
:101E000056000020546F7563682053637265656ED9
:101E10002041646A757374204F4B21001A0600201C
:101E200000100140B3120008DF0F00083B2100083A
:101E30007FB50C4605460121022006F047F9ADF8B2
:101E40000040ADF804500024574DADF80240ADF805
:101E500006406946284606F051FB012211462846F5
:101E600006F009FE1D218DF80C108DF80D400320A1
:101E70008DF80E0001208DF80F0003A805F08BFEF1
:101E80000121284606F0E2FD7FBD10B5464C012138
:101E9000204607F004F818B144490A68521C0A6049
:101EA0002046BDE81040012107F005B87FB50D467A
:101EB00004460121102006F009F9ADF80440002184
:101EC000ADF800503A4CADF80210ADF80610694676
:101ED000204606F013FB01224121204606F0CBFDEF
:101EE00036208DF80C0001218DF80D1003228DF89D
:101EF0000E208DF80F1003A805F04DFE012120469D
:101F000006F0A4FD7FBD10B5294C0121204606F046
:101F1000C6FF08B112F08AFF2046BDE8104001213B
:101F200006F0C9BF7FB50D4604460121042006F026
:101F3000CDF8ADF804400021ADF800501D4CADF8CF
:101F40000210ADF806106946204606F0D7FA0122C5
:101F50004121204606F08FFD1E218DF80C10022134
:101F60008DF80D1003218DF80E1001208DF80F0053
:101F700003A805F010FE0121204606F067FD7FBD95
:101F800010B50C4C0121204606F089FF28B105F060
:101F900074FD014608A00DF0E3FE2046BDE81040A8
:101FA000012106F088BF00000004004090000020DE
:101FB00000100040000800406D656D207573656479
:101FC0002025642025250D0A000000002DE9F041A0
:101FD00015460E4604460027FEF71CFE7020FEF74D
:101FE000B0FEFEF74FFEE0B2FEF7ABFEFEF74AFE94
:101FF000002408E0305DFEF7A4FEFEF743FE070074
:1020000003D1641CE4B2AC42F4D3FEF71FFE3846A1
:10201000BDE8F0812DE9F04115460F460446FEF774
:10202000F9FD7020FEF78DFEFEF72CFEE0B2FEF704
:1020300088FEFEF727FEFEF7EDFD7120FEF781FE1C
:10204000FEF720FE00246E1E09E0B44201D00120FC
:1020500000E00020FEF79DFE3855641CE4B2AC425F
:10206000F3D3BDE8F041FEF7F1BD7CB501211020AE
:1020700006F023F84FF40054ADF8044010208DF81A
:1020800007000320764D8DF8060001A9284605F0CB
:102090002CFE2146284605F092FE0221ADF80410E0
:1020A00048218DF8071001A9284605F01EFE0221DF
:1020B000284605F084FEFEF794FD6A4D0024C5F81D
:1020C000B441142005F5DA7505F0EEFB0120286017
:1020D000322005F0E9FB8DF800400122694600201E
:1020E000FFF774FF01226946A420FFF76FFF162057
:1020F0008DF80000012269468020FFF767FF0C2061
:102100008DF80000012269468820FFF75FFF022258
:102110006946A120FFF77EFF9DF80000302803D11B
:102120009DF80100032801D001207CBD43F203018A
:102130004DA00DF015FE00207CBD2DE9F1434D4F63
:1021400000244FF00A09387882B0401CC0B2B0FBBE
:10215000F9F209FB1201484DA046387009B10A286E
:1021600063D2012202A90220FFF754FF9DF8080064
:1021700001075AD000F00F00062856D2FF218140F7
:10218000C84340F0C00085F820004FF00108002649
:1021900095F8201008FA04F0014239D0374804229B
:1021A000694630F81400FFF735FF95F830009DF8C8
:1021B0000010C0079DF8010001F00F010ED000EBE8
:1021C000012105EB4400C1829DF802209DF8031017
:1021D00002F00F0201EB022181810FE000EB0120F0
:1021E000C0F5F07105EB440081819DF802209DF857
:1021F000031002F00F0201EB0221C1829DF80000E2
:102200000821B1EB101F03D005EB4400C682868184
:10221000641CE4B2052CBBD3A9894FF0010819B99D
:10222000E88A08B98DF808603E709DF80800C0067D
:102230000ED195F82000010602D520F0800005E0BF
:102240004FF6FF71A981E98200F0E00085F82000D7
:102250003878F02801D987F800904046BDE8FE8321
:1022600000100140000022424354502049443A25C6
:10227000780D0A005400002020000020C64002080B
:102280004FF48072FE494A614A154A61FD4B18605D
:102290008020486108610A617047F9494FF48072F3
:1022A0000A614A154A61F74B18608020486108614D
:1022B0000A6170472DE9F047DFF8C8934FF0883086
:1022C000A9F10C09C9F8000009F104052860ED4ED8
:1022D00000203060EA4CA8152061470067614FF08C
:1022E0004008C4F81480E8488088A0F5094189397D
:1022F00002D1022005F0C1FAE248001F0068C4F8CC
:10230000108080B227614FF03331C9F80010296086
:102310004FF6FF713160BDE8F08710B50C46FFF74E
:10232000AFFFD7484FF48071016142154261D54932
:102330000C60802141610161026110BD10B5FFF7A1
:102340009FFFBDE81040B5E7CF48008998E7CC492A
:102350004FF480720A614A154A61CA4B18608020A6
:10236000486108610A617047C0F34511C20AC002A2
:1023700000EB4110104480B27047401EC0B2FCD246
:1023800070472DE9F34F0446070A00F0FF09019852
:10239000BD4A060AC5B291881046DFF8E4A240891A
:1023A000A1F513434FF4807B413B1CD0A1F5A6431C
:1023B000103B18D0134690469A791B88A1F5D04C53
:1023C0001B1B5B1EBCF1040C3CD0C446A1F5C858D5
:1023D000B8F163087DD0A1F5A048B8F5A26876D021
:1023E000012A75D062E1FFF74BFF5446CAF810B0DE
:1023F0004FF4007CCAF814C0DFF88882C8F8007077
:102400008027CAF81470CAF81070CAF810C0CAF849
:1024100010B0CAF814C0C8F80090CAF81470CAF80E
:102420001070CAF810C098488089FFF729FFC4F8D7
:1024300010B0C4F814C0C8F8006067612761C4F820
:1024400010C027E1012A00D19CB2FFF719FF5746BF
:10245000CAF810B04FF4007CCAF814C0DFF8249218
:10246000210AC9F800104FF08008CAF81480CAF891
:102470001080CAF810C0CAF810B0CAF814C0E1B28F
:10248000C9F80010CAF81480C7F81080C7F810C047
:102490007D488089FFF7F4FEC7F810B0C7F814C074
:1024A000C9F80060C7F81480C7F81080C7F810C0DA
:1024B000C7F810B0C7F814C0C9F80050C7F81480A6
:1024C000C7F81080C7F810C0BDE8FC8F01E0A2E09B
:1024D000EBE0E046F2B3FFF7D3FE5C465046CAF8A5
:1024E00010B04FF40071CAF81410DFF898C1CCF89E
:1024F00000708022CAF81420CAF81020CAF8101000
:10250000CAF810B0CAF81410CCF80090CAF8142019
:10251000CAF81020CAF81010CAF810404161B8F883
:1025200000305B1E1F12CCF8007042610261016135
:1025300004614161DBB2CCF80030426102610161AB
:102540004446B8F80C00FFF79BFE5F465046CAF8B9
:1025500010B000E02EE04FF40072CAF81420DFF84B
:1025600024C1CCF800608021CAF81410CAF81010F9
:10257000CAF81020CAF810B0CAF81420CCF80050DD
:10258000CAF81410CAF81010CAF81020CAF810704F
:10259000426163885B1E1C12CCF8004041610161FE
:1025A000026107614261DBB2CCF800304161016138
:1025B000026189E79CB2FFF763FE5B465046CAF8AA
:1025C00010B04FF40071CAF814102E4F4FF0000CE9
:1025D000C7F800C08022CAF81420CAF81020CAF830
:1025E0001010CAF810B0CAF81410C7F800C0CAF822
:1025F0001420CAF81020CAF81010036141614FEA94
:10260000142CC7F800C0426102610161036141619D
:10261000E3B23B6091E7FFF733FE5446CAF810B0CF
:102620004FF4007CCAF814C0DFF85880C8F8007076
:102630008027CAF81470CAF81070CAF810C012487F
:102640004089401C80B2FFF71BFEC4F810B0C4F8EC
:1026500014C0C8F8009067612761C4F810C00A4828
:102660008089FFF70DFEC4F810B0C4F814C0C8F894
:10267000006067612761C4F810C00348808905E0E5
:10268000001001400C0C01401A060020401C80B2D2
:10269000FFF7F6FDC4F810B0C4F814C0C8F8005035
:1026A00067612761C4F810C00EE79CB22146FFF7AE
:1026B00034FEBCF80C000199BDE8FC4F2DE62DE975
:1026C000F84FFB4D2A88824202D96A888A4202D892
:1026D0000020BDE8F88FFFF754FEF54845F2103BA7
:1026E0008088A0F51341413956D0A0F5D041043976
:1026F00052D0584550D0A0F5C85163394CD0A0F500
:10270000AA4110394AD02220FFF7BAFDE94F4FF015
:102710008830386007F1040CCCF80000DFF894A38F
:102720004FF6FF750AF10C0ACAF80050E24BB815D3
:1027300018614FF40079C3F814904FF04008C3F8C3
:1027400014800220401EC0B2FCD2DA4E0836306837
:10275000C3F8108080B2D6494FF0333E8988A1F586
:10276000C852633A1DD0C3F814800220401EC0B284
:10277000FCD23068C3F8108080B2A1F51342413A10
:1027800018D0594516D0A1F5AA42103A12D0A1F599
:10279000D042043A1DD022E02E20B5E74FF4385045
:1027A000B2E7C3F81090C7F800E0CCF800E0CAF830
:1027B00000508EE7C3F814800222521ED2B2FCD21F
:1027C000326892B20092C3F81080C2B205EA0224C5
:1027D00005E0C3F81480C3F81080306880B2C3F8F5
:1027E0001090C7F800E0CCF800E0CAF80050A1F55E
:1027F0001342253ADDD0A1F58A42353AD9D0121DCF
:10280000D7D0A1F50942893AD3D0A1F53542053A8E
:10281000CFD0A1F51342413A08D0594506D0A1F5D1
:10282000AA42103A02D0BDE8F84F9DE56FF30A00C6
:10283000A10A40EA4111009841EAD02049E79C48AA
:102840008088A0F51341413913D0A0F5D041043957
:102850000FD0A0F5A64110390BD0A0F5C8516339AF
:1028600007D0A0F5AA41103905D040F27311072016
:1028700053E5292001E04FF4245001E58C4880887D
:10288000A0F51341413912D0A0F5D04104390ED042
:10289000A0F5A64110390AD0A0F5C851633906D079
:1028A000A0F5AA41103904D00021072035E52820E1
:1028B00001E04FF42050E3E42DE9F04F7C4C00267A
:1028C0002146A279898846F6040341F66317012A56
:1028D00001D02AB11DE099421BD0B94202D118E0C3
:1028E000B94216D1082814D2DFE800F00406080A1D
:1028F0000C0E101206200CE007200AE0042008E06D
:10290000052006E0012004E0002002E0032000E0B2
:102910000220A1F5134C45F2103245F21055BCF1DE
:10292000410C07D0994205D0914203D0A94201D071
:10293000B9427DD1082812D2DFE800F01104060860
:102940000A0C0E1080260AE0402608E0C02606E0A9
:10295000202604E0602602E0A02600E0E026A9424E
:1029600002D14FF4585000E03620914205D0A942E0
:1029700003D0B94201D046F00806994201D146F091
:1029800002063146FFF7C9FCA088B8420AD0B1065A
:102990002188628802D5914202D303E0914201D995
:1029A00022806180444EDFF80CA177154FF00008BB
:1029B0004FF0800B4FF4807C0AF10C0AA8427ED1C4
:1029C0006089FFF75DFCC6F810C077614046C146DC
:1029D000D046CAF800005D46C6F814B0C6F810B07C
:1029E00037616089401C80B2FFF74AFCC6F810C00E
:1029F0007761C8F800907561356137616089801C26
:102A000080B2FFF73DFCC6F810C077612088401EF9
:102A10000112C8F800107561356137616089C01C0A
:102A200080B2FFF72DFCC6F810C07761207800E077
:102A30009CE0401EC1B2C8F8001075613561376175
:102A4000A089FFF71DFCC6F810C07761C8F8009098
:102A5000756135613761A089401C80B2FFF710FCB9
:102A6000C6F810C07761C8F80090756135613761AC
:102A7000A089801C80B2FFF703FCC6F810C0776104
:102A80006088401E0112C8F8001075613561376119
:102A9000A089C01C80B2FFF7F3FBC6F810C07761B5
:102AA000A078401EC1B2C8F80010756135615AE0C7
:102AB0001A060020000C014000100140FFE7A1466B
:102AC0006089FFF7DDFBC6F810C077615546CAF88C
:102AD00000805C46C6F814B0C6F810B03761C6F87E
:102AE00010C07761CAF80080C6F814B0C6F810B0FC
:102AF0003761C6F810C07761B9F80000401E0112B6
:102B00002960C6F814B034613761C6F810C0776127
:102B1000C0B22860746134613761B9F80C00FFF706
:102B2000AFFBC6F810C07761C5F8008074613461EE
:102B30003761C6F810C07761C5F8008074613461F0
:102B40003761C6F810C07761B9F80200401E011263
:102B50002960746134613761C6F810C07761C0B212
:102B60002860746134613761BDE8F08F082812D2A3
:102B7000DFE800F0040608110A0C0E1030260AE007
:102B8000102608E0202606E0382604E0282602E089
:102B9000182600E0082646F48051BDE8F04F0320D7
:102BA000FFF7BBBB00B5FFF7ECFBFFF7CDFBFC4825
:102BB0004FF48071016141154161FA4AFA4B128864
:102BC0001A60802242610261016100BD2DE9F74F68
:102BD0000446F64881B0DFF8C8B381880298DFF870
:102BE000C89300F0FF08050AE0B20090EF48270AFA
:102BF000A1F5134240894FF4807A4FF40076413AB0
:102C000018D0DFF8A8C3A1F5A642103A12D0B2F549
:102C100000723BD06346A1F5C8579A791B881B1BED
:102C20005B1E633F6CD0A1F5D047043F7DD0012AE5
:102C30007CD0F6E0DFF874C3FFF722FB5C46CBF8EC
:102C400010A0CBF81460C9F800708027CBF814707E
:102C5000CBF81070CBF81060CBF810A0CBF8146054
:102C60000098C9F80000CBF81470CBF81070CBF8BE
:102C70001060BCF80C00FFF703FBC4F810A06661FD
:102C8000C9F8005067612761266130E0FFF7F8FA64
:102C90005C46CBF810A0CBF81460C9F80070802710
:102CA000CBF81470CBF81070CBF81060BCF80A00A9
:102CB000401C80B2FFF7E4FAC4F810A066610098E7
:102CC000C9F80000676127612661BCF80C00FFF7B6
:102CD000D7FAC4F810A06661C9F80050676127618F
:102CE0002661BCF80C00401C80B2FFF7C9FAC4F89A
:102CF00010A06661C9F8008067612761266198E0CD
:102D000002B99CB2FFF7BCFA5F46CBF810A0CBF833
:102D10001460200AC9F800004FF0800CCBF814C0F2
:102D2000CBF810C0CBF8106001E03EE078E0CBF8C3
:102D300010A0CBF81460E1B2C9F80010CBF814C0B1
:102D4000CBF810C0CBF81060C7F810A07E61C9F8AE
:102D50000000C7F814C0C7F810C03E61C7F810A043
:102D60007E61C9F80010C7F814C0C7F810C03E61F2
:102D70008E488089FFF784FAC7F810A07E61C9F8F1
:102D80000050C7F814C0C7F810C03E61C7F810A0C3
:102D90007E61C9F80080C7F814C0C7F810C03E6152
:102DA000C7F810A07E61484629E0012A00D19CB2F4
:102DB000FFF766FA5F46CBF810A0CBF81460210A43
:102DC000C9F800104FF0800CCBF814C0CBF810C03D
:102DD000CBF81060CBF810A0CBF81460E1B2C9F8C2
:102DE0000010CBF814C0CBF810C0CBF810606F48BF
:102DF0008089FFF745FAC7F810A07E614846056054
:102E0000C7F814C0C7F810C03E61C7F810A07E61B3
:102E1000C9F80080C7F814C0C7F810C03E6108E0C8
:102E20009CB22146FFF779FABCF80C000299FFF733
:102E300074FA5846CBF814A0CBF814605B490989A2
:102E4000C9F800108021CBF81410CBF81010CBF883
:102E50001060CBF810A0CBF81460039BC9F80030C9
:102E6000CBF81410CBF810100661BDE8FF8F2DE9E8
:102E7000F0418446BE20FFF703FA494C4FF48077B7
:102E8000276165156561DFF820810521C8F800100C
:102E9000802666612661256127616561604620F0B4
:102EA00036FA4FF06632424B20F044FA20F002FA34
:102EB000C8F800006661266125612761656101210E
:102EC000C8F8001066612661256127616561FF21F0
:102ED000C8F80010666126612561276165610020E0
:102EE000C8F8000066612661256127616561C8F840
:102EF0000000666126612561BDE8F0812DE9F04F93
:102F00002A492A232B24898845F2105A4FF4305B32
:102F10004FF4285E4FF448754FF0F00C49F24139F8
:102F20004FF4A07745F210364FF4F07280B11F488D
:102F30004FF00108494580F806800780A0F802C0DC
:102F400001D0B14248D12C2505814381848161E0C3
:102F500016484FF00008494580F80680A0F800C0E8
:102F6000478006D0A1F5D04CBCF1040C01D0B14291
:102F70000CD12C2505814381A1F5D0438481043BEC
:102F800001D0B1424ED1078042804BE0514511D172
:102F9000A0F808B0A0F80AE04FF42C51818118E0A5
:102FA00000100140560000200C0C01401A060020C1
:102FB00066660440A1F5C856633E06D02221018111
:102FC00020214181212181812CE02C21018144811A
:102FD00083810280458025E0A1F5D04CBCF1040C32
:102FE00009D051450BD1A0F808B0A0F80AE04FF481
:102FF0002C53838120E02C250581448109E0A1F533
:10300000C85CBCF1630C11D02223038121234381CE
:1030100020238381A1F5D043043B01D0B14201D1EB
:1030200002804780BDE8F04F002045E44FF02C0CB3
:10303000A0F808C04381848105804280EAE72DE939
:10304000FF4F044691464844DFF878E4401E86B0BE
:1030500087B2BEF80400E2B2049204EB0902521EE9
:103060001FFA82FC4FEA1C22CE1803920CF0FF02DA
:10307000761E1FFA86FC02924FEA1C2201920CF087
:10308000FF020D4600927246A0F513415289B3B279
:103090004FEA14284FEA152B05F0FF0A413910D0EA
:1030A000A0F5A64110390CD0A0F5D041043908D0C4
:1030B0009EF8061041F6631C0591012950D1604528
:1030C0004ED1F1461046FFF7DBF8FF4C4FF4807607
:1030D000266165156561FD4FC7F800804FF0800CD3
:1030E000C4F814C0C4F810C0256126616561049855
:1030F0003860C4F814C0C4F810C025612661656149
:1031000003983860C4F814C0C4F810C02561266163
:10311000656102983860C4F814C0C4F810C0256115
:10312000B9F80C00FFF7ACF826616561C7F800B08C
:10313000C4F814C0C4F810C0256126616561C7F8E1
:1031400000A0C4F814C0C4F810C0256126616561F0
:1031500001983860C4F814C0C4F810C02561FDE0BF
:10316000D849604509885BD1A1EB0900001B1FFA13
:1031700080F8B0B209901046FFF782F8D24C4FF4B5
:103180008077276165156561DFF840C34FEA182035
:10319000CCF80000802666612661256127616561A3
:1031A00008F0FF00CCF80000666126612561276108
:1031B000656108EB0900401E0112CCF80010666141
:1031C0002661256127616561C0B2CCF800006661A7
:1031D00026612561BB488089FFF752F82761656148
:1031E000CCF800B066612661256127616561CCF885
:1031F00000A0666126612561276165610998000A62
:10320000CCF8000066612661256127616561099837
:10321000C0B2CCF800006661266125610AB0A3E463
:10322000A0F5A04CBCF5A26C24D0059801287CD058
:103230003E4620462F469C46502201464FF0510AFA
:103240004FF052094FF053081046FFF766F8314629
:103250005046FFF762F839464846FFF75EF8614688
:103260004046FFF75AF80AB029462046BDE8F04F1D
:10327000FFF787B8F1461046FFF702F8924C4FF47B
:103280008076266165156561904FC7F800804FF024
:10329000800CC4F814C0C4F810C02561B9F80A0045
:1032A000401C80B2FEF7ECFF26616561049838602F
:1032B000C4F814C0C4F810C02561B9F80A00801C15
:1032C00080B2FEF7DDFF2661656103983860C4F8BF
:1032D00014C0C4F810C02561B9F80A00C01C80B23F
:1032E000FEF7CEFF2661656102983860C4F814C00D
:1032F000C4F810C02561B9F80C00FEF7C1FF2661C3
:103300006561C7F800B0C4F814C0C4F810C02561E6
:10331000B9F80C00401C80B2FEF7B2FF266165616F
:10332000C7F800A0C4F814C000E020E0C4F810C042
:103330002561B9F80C00801C80B2FEF7A1FF266160
:10334000656101983860C4F814C0C4F810C02561E4
:10335000B9F80C00C01C80B2FEF792FF26616561CF
:1033600000983860C4F814C0C4F810C055E7CA1BF0
:10337000521E091B491E28461E4697B21FFA81FCA1
:103380005AE72DE9F0434F4F0646002438887D88E0
:103390004543B888A0F5D041043902D1B879012855
:1033A0000CD000210846FEF7ECFFFEF7CDFF4649A2
:1033B0004FF480774B15454A80201AE00020B87101
:1033C0004FF02A08A7F80A804FF02B09A7F80C90B5
:1033D0000146FEF7D6FF0120B871A7F80A90A7F8BA
:1033E0000C80E2E70F614B611660486108610B6178
:1033F000641CAC42F6D3BDE8F0832DE9F84F0121FF
:10340000192004F05AFE0121314804F0F9FC4FF470
:10341000F864ADF8004010208DF80300DFF8A880B4
:1034200003208DF8020069464546404604F05DFCE5
:103430002146284604F0C3FC244D4FF6FF7B0C3D8B
:103440005C46ADF800B06946284604F04EFC2146C3
:10345000284604F0B4FC322004F026FA01210020B2
:10346000FEF75BFF322004F01FFA0020FEF766FF34
:10347000144C49F2413746F60409A08045F2103A4F
:1034800045F21055FF2804D3584502D0B0F5134F2C
:1034900079D1D320FEF7F4FEFEF70CFFFEF70AFF0A
:1034A000FEF708FF0BEA00205E46A080FEF702FF51
:1034B000A1880843A080B84265D0BF20FEF7E0FE97
:1034C00008E000001A060020001001400C0C01402A
:1034D00000023000FEF7EEFEFEF7ECFEFEF7EAFE1D
:1034E000FEF7E8FE06EA0020A080FEF7E3FEA188D2
:1034F0000843A080484546D0D420FEF7C1FEFEF721
:10350000D9FEFEF7D7FEFEF7D5FE06EA0020A08022
:10351000FEF7D0FEA1880843A080504533D04FF479
:103520005A40FEF7ADFEFEF7C5FE4FF45B40FEF7D6
:10353000A7FEFEF7BFFE06EA0020A0804FF45C4025
:10354000FEF79EFEFEF7B6FEA1880843A080B0F508
:10355000004F7DD0A84216D0A120FEF791FEFEF7C5
:10356000A9FEA080FEF7A6FE06EA0020A080FEF7D6
:10357000A1FEA1880843A0F5AE41A080613902D127
:1035800041F66310A080A188FEA00CF0E9FBA088A2
:10359000B8427DD1CF20FEF773FE0020FEF77DFEFE
:1035A000C120FEF77AFE3020FEF777FEED20FEF711
:1035B00067FE6420FEF771FE0320FEF76EFE122008
:1035C000FEF76BFE8120FEF768FEE820FEF758FE4E
:1035D0008520FEF762FE1020FEF75FFE7A20FEF7E0
:1035E0005CFECB20FEF74CFE3920FEF756FE2C2069
:1035F000FEF753FE0020FEF750FE3420FEF74DFE8E
:103600000220FEF74AFEF720FEF73AFE2020FEF7E2
:1036100044FEEA20FEF734FE0020FEF73EFE0020C6
:10362000FEF73BFEC020FEF72BFE1B20FEF735FE0B
:10363000C120FEF725FE0120FEF72FFEC520FEF774
:103640001FFE3020FEF729FE3020FEF726FE00E0A8
:10365000B3E0C720FEF714FEB720FEF71EFE3620AB
:10366000FEF70EFE4820FEF718FE3A20FEF708FE91
:103670005520FEF712FEB120FEF702FE0020FEF7F5
:103680000CFE1A20FEF709FEB620FEF7F9FD00E059
:1036900095E00A20FEF701FEA220FEF7FEFDF220D3
:1036A000FEF7EEFD0020FEF7F8FD2620FEF7E8FD10
:1036B0000120FEF7F2FDE020FEF7E2FD0F20FEF70D
:1036C000ECFD2A20FEF7E9FD2820FEF7E6FD0820A4
:1036D000FEF7E3FD0E20FEF7E0FD0820FEF7DDFD1E
:1036E0005420FEF7DAFDA920FEF7D7FD4320FEF7B0
:1036F000D4FD0A20FEF7D1FD0F20FEF7CEFD0020FD
:10370000FEF7CBFD0020FEF7C8FD0020FEF7C5FD4B
:103710000020FEF7C2FDE120FEF7B2FD0020FEF71B
:10372000BCFD1520FEF7B9FD1720FEF7B6FD0720FA
:10373000FEF7B3FD1120FEF7B0FD0620FEF7ADFD4C
:103740002B20FEF7AAFD5620FEF7A7FD3C20FEF732
:10375000A4FD0520FEF7A1FD1020FEF79EFD0F2021
:10376000FEF79BFD3F20FEF798FD3F20FEF795FDFD
:103770000F20FEF792FD2B20FEF782FD0020FEF7C2
:103780008CFD0020FEF789FD0120FEF786FD3F201D
:10379000FEF783FD2A20FEF773FD0020FEF77DFD76
:1037A0000020FEF77AFD0020FEF777FDEF20FEF700
:1037B00074FD1120FEF764FDA7E0A580E3E648450F
:1037C0007ED11120FEF75CFD142004F06DF8D020AE
:1037D000FEF756FD0720FEF760FD4220FEF75DFD77
:1037E0001D20FEF75AFDD120FEF74AFD0020FEF70E
:1037F00054FD1A20FEF751FD0920FEF74EFDD220A0
:10380000FEF73EFD0120FEF748FD2220FEF745FDB4
:10381000C020FEF735FD1020FEF73FFD3B20FEF7F0
:103820003CFD0020FEF739FD0220FEF736FD112099
:10383000FEF733FDC520FEF723FD0320FEF72DFD27
:10384000C820FEF71DFD0020FEF727FD2520FEF70E
:1038500024FD2120FEF721FD0520FEF71EFD00209E
:10386000FEF71BFD0A20FEF718FD6520FEF715FD8B
:103870002520FEF712FD7720FEF70FFD5020FEF702
:103880000CFD0F20FEF709FD0020FEF706FDF820D5
:10389000FEF7F6FC0120FEF700FDFE20FEF7F0FC2F
:1038A0000020FEF7FAFC0220FEF7F7FC2020FEF7CE
:1038B000E7FC3620FEF7E4FC0820FEF7EEFC00E013
:1038C00029E03A20FEF7DCFC5520FEF7E6FC2B2031
:1038D000FEF7D6FC0020FEF7E0FC0020FEF7DDFC42
:1038E0000120FEF7DAFC3F20FEF7D7FC2A20FEF786
:1038F000C7FC0020FEF7D1FC0020FEF7CEFC012023
:10390000FEF7CBFCDF20FEF7C8FC782003F0CCFFED
:10391000292001F004BF50457ED1ED20FEF7B0FC18
:103920000120FEF7BAFCFE20FEF7B7FCEE20FEF702
:10393000A7FCDE20FEF7B1FC2120FEF7AEFCF12053
:10394000FEF79EFC0120FEF7A8FCDF20FEF798FCA6
:103950001020FEF7A2FCC420FEF792FC8F20FEF799
:103960009CFCC620FEF78CFC0020FEF796FCE220B3
:10397000FEF793FCE220FEF790FCE220FEF78DFCC0
:10398000BF2007E0204C43442049443A25780D0AE3
:1039900000000000FEF774FCAA20FEF77EFCB020B9
:1039A000FEF76EFC0D20FEF778FC0020FEF775FC9C
:1039B0000D20FEF772FC0020FEF76FFC1120FEF7D1
:1039C0006CFC0020FEF769FC1920FEF766FC002065
:1039D000FEF763FC2120FEF760FC0020FEF75DFC93
:1039E0002D20FEF75AFC0020FEF757FC3D20FEF785
:1039F00054FC0020FEF751FC5D20FEF74EFC002039
:103A0000FEF74BFC5D20FEF748FC0020FEF745FC6E
:103A1000B120FEF735FC00E0FDE38020FEF73DFC21
:103A20000020FEF73AFC8B20FEF737FC0020FEF763
:103A300034FC9620FEF731FC0020FEF72EFCB2206D
:103A4000FEF71EFC0020FEF728FC0020FEF725FCF8
:103A50000220FEF722FC0020FEF71FFC0320FEF7E9
:103A60001CFC0020FEF719FCB320FEF709FC002027
:103A7000FEF713FC0020FEF710FC0020FEF70DFC03
:103A80000020FEF70AFC0020FEF707FC0020FEF7EE
:103A900004FC0020FEF701FC0020FEF7FEFB0020E6
:103AA000FEF7FBFB0020FEF7F8FB0020FEF7F5FB1E
:103AB0000020FEF7F2FB0020FEF7EFFB0020FEF7F0
:103AC000ECFB0020FEF7E9FB0020FEF7E6FB002000
:103AD000FEF7E3FB0020FEF7E0FB0020FEF7DDFB36
:103AE0000020FEF7DAFB0020FEF7D7FB0020FEF7F0
:103AF000D4FB0020FEF7D1FB0020FEF7CEFBB42064
:103B0000FEF7BEFB8B20FEF7C8FB0020FEF7C5FBCF
:103B10009620FEF7C2FB0020FEF7BFFBA120FEF7B8
:103B2000BCFB0020FEF7B9FBB520FEF7A9FB022085
:103B3000FEF7B3FB0020FEF7B0FB0320FEF7ADFB62
:103B40000020FEF7AAFB0420FEF7A7FB0020FEF7EB
:103B5000A4FBB620FEF794FB0020FEF79EFB00209E
:103B6000FEF79BFBB720FEF78BFB0020FEF795FBD3
:103B70000020FEF792FB3F20FEF78FFB0020FEF7B0
:103B80008CFB5E20FEF789FB0020FEF786FB64209D
:103B9000FEF783FB0020FEF780FB8C20FEF77DFB09
:103BA0000020FEF77AFBAC20FEF777FB0020FEF743
:103BB00074FBDC20FEF771FB0020FEF76EFB70202B
:103BC000FEF76BFB0020FEF768FB9020FEF765FB1D
:103BD0000020FEF762FBEB20FEF75FFB0020FEF704
:103BE0005CFBDC20FEF759FB0020FEF756FBB820FB
:103BF000FEF746FB0020FEF750FB0020FEF74DFBD2
:103C00000020FEF74AFB0020FEF747FB0020FEF7EE
:103C100044FB0020FEF741FB0020FEF73EFB0020A6
:103C2000FEF73BFBBA20FEF72BFB2420FEF735FB0B
:103C30000020FEF732FB0020FEF72FFB0020FEF7EE
:103C40002CFBC120FEF71CFB2020FEF726FB0020EA
:103C5000FEF723FB5420FEF720FB0020FEF71DFBA0
:103C6000FF20FEF71AFB0020FEF717FBC220FEF72D
:103C700007FB0A20FEF711FB0020FEF70EFB0420D5
:103C8000FEF70BFB0020FEF708FBC320FEF7F8FA57
:103C90003C20FEF702FB0020FEF7FFFA3A20FEF779
:103CA000FCFA0020FEF7F9FA3920FEF7F6FA0020B8
:103CB000FEF7F3FA3720FEF7F0FA0020FEF7EDFAF0
:103CC0003C20FEF7EAFA0020FEF7E7FA3620FEF77E
:103CD000E4FA0020FEF7E1FA3220FEF7DEFA0020D7
:103CE000FEF7DBFA2F20FEF7D8FA0020FEF7D5FA10
:103CF0002C20FEF7D2FA0020FEF7CFFA2920FEF79B
:103D0000CCFA0020FEF7C9FA2620FEF7C6FA0020FA
:103D1000FEF7C3FA2420FEF7C0FA0020FEF7BDFA32
:103D20002420FEF7BAFA0020FEF7B7FA2320FEF7A8
:103D3000B4FA0020FEF7B1FA3C20FEF7AEFA0020FC
:103D4000FEF7ABFA3620FEF7A8FA0020FEF7A5FA38
:103D50003220FEF7A2FA0020FEF79FFA2F20FEF78E
:103D60009CFA0020FEF799FA2C20FEF796FA002024
:103D7000FEF793FA2920FEF790FA0020FEF78DFA5D
:103D80002620FEF78AFA0020FEF787FA2420FEF7A5
:103D900084FA0020FEF781FA2420FEF77EFA002044
:103DA000FEF77BFA2320FEF778FA0020FEF775FA7B
:103DB000C420FEF765FA6220FEF76FFA0020FEF7D6
:103DC0006CFA0520FEF769FA0020FEF766FA8420F7
:103DD000FEF763FA0020FEF760FAF020FEF75DFAC6
:103DE0000020FEF75AFA1820FEF757FA0020FEF7D7
:103DF00054FAA420FEF751FA0020FEF74EFA1820DC
:103E0000FEF74BFA0020FEF748FA5020FEF745FA7D
:103E10000020FEF742FA0C20FEF73FFA0020FEF7E2
:103E20003CFA1720FEF739FA0020FEF736FA952003
:103E3000FEF733FA0020FEF730FAF320FEF72DFAF2
:103E40000020FEF72AFAE620FEF727FA0020FEF708
:103E500024FAC520FEF714FA3220FEF71EFA0020DD
:103E6000FEF71BFA4420FEF718FA0020FEF715FAB9
:103E70006520FEF712FA0020FEF70FFA7620FEF713
:103E80000CFA0020FEF709FA8820FEF706FA002057
:103E9000FEF703FAC620FEF7F3F92020FEF7FDF93E
:103EA0000020FEF7FAF91720FEF7F7F90020FEF7D9
:103EB000F4F90120FEF7F1F90020FEF7EEF9C72032
:103EC000FEF7DEF90020FEF7E8F90020FEF7E5F93D
:103ED0000020FEF7E2F90020FEF7DFF9C820FEF728
:103EE000CFF90020FEF7D9F90020FEF7D6F900201F
:103EF000FEF7D3F90020FEF7D0F9C920FEF7C0F98C
:103F00000020FEF7CAF90020FEF7C7F90020FEF7EF
:103F1000C4F90020FEF7C1F90020FEF7BEF9002029
:103F2000FEF7BBF90020FEF7B8F90020FEF7B5F95F
:103F30000020FEF7B2F90020FEF7AFF90020FEF7EF
:103F4000ACF90020FEF7A9F90020FEF7A6F9002041
:103F5000FEF7A3F90020FEF7A0F90020FEF79DF977
:103F6000E020FEF78DF91620FEF797F90020FEF706
:103F700094F91C20FEF791F90020FEF78EF921201C
:103F8000FEF78BF90020FEF788F93620FEF785F959
:103F90000020FEF782F94620FEF77FF90020FEF7A9
:103FA0007CF95220FEF779F90020FEF776F96420BB
:103FB000FEF773F90020FEF770F97A20FEF76DF92D
:103FC0000020FEF76AF98B20FEF767F90020FEF764
:103FD00064F99920FEF761F90020FEF75EF9A82048
:103FE000FEF75BF90020FEF758F9B920FEF755F906
:103FF0000020FEF752F9C420FEF74FF90020FEF72B
:104000004CF9CA20FEF749F90020FEF746F9D22004
:10401000FEF743F90020FEF740F9D920FEF73DF9FD
:104020000020FEF73AF9E020FEF737F90020FEF70E
:1040300034F9F320FEF731F90020FEF72EF9E120E4
:10404000FEF71EF91620FEF728F90020FEF725F9E5
:104050001C20FEF722F90020FEF71FF92220FEF7B0
:104060001CF90020FEF719F93620FEF716F900209A
:10407000FEF713F94520FEF710F90020FEF70DF9C1
:104080005220FEF70AF90020FEF707F96420FEF738
:1040900004F90020FEF701F97A20FEF7FEF800206F
:1040A000FEF7FBF88B20FEF7F8F80020FEF7F5F896
:1040B0009920FEF7F2F80020FEF7EFF8A820FEF7AF
:1040C000ECF80020FEF7E9F8B920FEF7E6F800204A
:1040D000FEF7E3F8C420FEF7E0F80020FEF7DDF875
:1040E000CA20FEF7DAF80020FEF7D7F8D220FEF754
:1040F000D4F80020FEF7D1F8D820FEF7CEF8002043
:10410000FEF7CBF8E020FEF7C8F80020FEF7C5F870
:10411000F320FEF7C2F80020FEF7BFF8E220FEF71A
:10412000AFF80520FEF7B9F80020FEF7B6F80B202F
:10413000FEF7B3F80020FEF7B0F81B20FEF7ADF84D
:104140000020FEF7AAF83420FEF7A7F80020FEF7BB
:10415000A4F84420FEF7A1F80020FEF79EF84F20B7
:10416000FEF79BF80020FEF798F86120FEF795F81F
:104170000020FEF792F87920FEF78FF80020FEF776
:104180008CF88820FEF789F80020FEF786F8972043
:10419000FEF783F80020FEF780F8A620FEF77DF8F2
:1041A0000020FEF77AF8B720FEF777F80020FEF738
:1041B00074F8C220FEF771F80020FEF76EF8C720F1
:1041C000FEF76BF80020FEF768F8D120FEF765F8DF
:1041D0000020FEF762F8D620FEF75FF80020FEF719
:1041E0005CF8DD20FEF759F80020FEF756F8F320C2
:1041F000FEF753F80020FEF750F8E320FEF740F8F2
:104200000520FEF74AF80020FEF747F80A20FEF7DF
:1042100044F8002000E003E3FEF73FF81C20FEF71F
:104220003CF80020FEF739F83320FEF736F800207E
:10423000FEF733F84420FEF730F80020FEF72DF8A3
:104240005020FEF72AF80020FEF727F86220FEF73C
:1042500024F80020FEF721F87820FEF71EF8002051
:10426000FEF71BF88820FEF718F80020FEF715F877
:104270009720FEF712F80020FEF70FF8A620FEF7B1
:104280000CF80020FEF709F8B720FEF706F800202A
:10429000FEF703F8C220FEF700F80020FDF7FDFF4F
:1042A000C720FDF7FAFF0020FDF7F7FFD120FDF74B
:1042B000F4FF0020FDF7F1FFD520FDF7EEFF002011
:1042C000FDF7EBFFDD20FDF7E8FF0020FDF7E5FF40
:1042D000F320FDF7E2FF0020FDF7DFFFE420FDF70C
:1042E000CFFF0120FDF7D9FF0020FDF7D6FF012009
:1042F000FDF7D3FF0020FDF7D0FF0220FDF7CDFF33
:104300000020FDF7CAFF2A20FDF7C7FF0020FDF7B8
:10431000C4FF3C20FDF7C1FF0020FDF7BEFF4B208E
:10432000FDF7BBFF0020FDF7B8FF5D20FDF7B5FFEF
:104330000020FDF7B2FF7420FDF7AFFF0020FDF76E
:10434000ACFF8420FDF7A9FF0020FDF7A6FF932016
:10435000FDF7A3FF0020FDF7A0FFA220FDF79DFFC2
:104360000020FDF79AFFB320FDF797FF0020FDF72F
:1043700094FFBE20FDF791FF0020FDF78EFFC420C3
:10438000FDF78BFF0020FDF788FFCD20FDF785FFAF
:104390000020FDF782FFD320FDF77FFF0020FDF70F
:1043A0007CFFDD20FDF779FF0020FDF776FFF3208D
:1043B000FDF773FF0020FDF770FFE520FDF760FFBC
:1043C0000020FDF76AFF0020FDF767FF0020FDF7E2
:1043D00064FF0020FDF761FF0220FDF75EFF002073
:1043E000FDF75BFF2920FDF758FF0020FDF755FF83
:1043F0003C20FDF752FF0020FDF74FFF4B20FDF75B
:104400004CFF0020FDF749FF5D20FDF746FF00202F
:10441000FDF743FF7420FDF740FF0020FDF73DFF4F
:104420008420FDF73AFF0020FDF737FF9320FDF7CA
:1044300034FF0020FDF731FFA220FDF72EFF002002
:10444000FDF72BFFB320FDF728FF0020FDF725FF28
:10445000BE20FDF722FF0020FDF71FFFC420FDF75F
:104460001CFF0020FDF719FFCD20FDF716FF0020EF
:10447000FDF713FFD320FDF710FF0020FDF70DFF20
:10448000DC20FDF70AFF0020FDF707FFF320FDF712
:1044900004FF0020FDF701FFE620FDF7F1FE1120EB
:1044A000FDF7FBFE0020FDF7F8FE3420FDF7F5FEDA
:1044B0000020FDF7F2FE5620FDF7EFFE0020FDF78D
:1044C000ECFE7620FDF7E9FE0020FDF7E6FE772002
:1044D000FDF7E3FE0020FDF7E0FE6620FDF7DDFEC0
:1044E0000020FDF7DAFE8820FDF7D7FE0020FDF75B
:1044F000D4FE9920FDF7D1FE0020FDF7CEFEBB20B3
:10450000FDF7CBFE0020FDF7C8FE9920FDF7C5FEA4
:104510000020FDF7C2FE6620FDF7BFFE0020FDF77C
:10452000BCFE5520FDF7B9FE0020FDF7B6FE552074
:10453000FDF7B3FE0020FDF7B0FE4520FDF7ADFE10
:104540000020FDF7AAFE4320FDF7A7FE0020FDF79F
:10455000A4FE4420FDF7A1FE0020FDF79EFEE7200B
:10456000FDF78EFE3220FDF798FE0020FDF795FE48
:104570005520FDF792FE0020FDF78FFE7620FDF717
:104580008CFE0020FDF789FE6620FDF786FE0020E8
:10459000FDF783FE6720FDF780FE0020FDF77DFE1E
:1045A0006720FDF77AFE0020FDF777FE8720FDF7F4
:1045B00074FE0020FDF771FE9920FDF76EFE0020CD
:1045C000FDF76BFEBB20FDF768FE0020FDF765FEE2
:1045D0009920FDF762FE0020FDF75FFE7720FDF7D2
:1045E0005CFE0020FDF759FE4420FDF756FE00203A
:1045F000FDF753FE5620FDF750FE0020FDF74DFE5F
:104600002320FDF74AFE0020FDF747FE3320FDF78B
:1046100044FE0020FDF741FE4520FDF73EFE002050
:10462000FDF73BFEE820FDF72BFE0020FDF735FEF1
:104630000020FDF732FE9920FDF72FFE0020FDF748
:104640002CFE8720FDF729FE0020FDF726FE88209E
:10465000FDF723FE0020FDF720FE7720FDF71DFE6D
:104660000020FDF71AFE6620FDF717FE0020FDF77B
:1046700014FE8820FDF711FE0020FDF70EFEAA2093
:10468000FDF70BFE0020FDF708FEBB20FDF705FE41
:104690000020FDF702FE9920FDF7FFFD0020FDF749
:1046A000FCFD6620FDF7F9FD0020FDF7F6FD552025
:1046B000FDF7F3FD0020FDF7F0FD5520FDF7EDFDC2
:1046C0000020FDF7EAFD4420FDF7E7FD0020FDF79F
:1046D000E4FD4420FDF7E1FD0020FDF7DEFD55205F
:1046E000FDF7DBFD0020FDF7D8FDE920FDF7C8FD53
:1046F000AA20FDF7D2FD0020FDF7CFFD0020FDF739
:10470000CCFD0020FDF7C9FD0020FDF7B9FDAA2072
:10471000FDF7C3FDCF20FDF7B3FD0020FDF7BDFD84
:104720000020FDF7BAFD0020FDF7B7FD0020FDF7E2
:10473000B4FD0020FDF7B1FD0020FDF7AEFD002027
:10474000FDF7ABFD0020FDF7A8FD0020FDF7A5FD5E
:104750000020FDF7A2FD0020FDF79FFD0020FDF7E2
:104760009CFD0020FDF799FD0020FDF796FD00203F
:10477000FDF793FD0020FDF790FD0020FDF78DFD76
:10478000F020FDF77DFD0020FDF787FD5020FDF7AF
:1047900084FD0020FDF781FD0020FDF77EFD002057
:1047A000FDF77BFDF320FDF76BFD0020FDF775FDA8
:1047B000F920FDF765FD0620FDF76FFD1020FDF7E0
:1047C0006CFD2920FDF769FD0020FDF766FD3A200C
:1047D000FDF756FD5520FDF760FD1120FDF750FD5A
:1047E000642003F061F82920FDF74AFD3520FDF72C
:1047F00047FD0020FDF751FD5120FDF741FDFF2051
:10480000FDF74BFD5320FDF73BFD2C20FDF745FD4B
:104810005520FDF735FD8220FDF73FFD2C20FCE300
:10482000A8427DD14FF4704455212046FDF775FD17
:10483000651CAA212846FDF770FDA61C52213046B2
:10484000FDF76BFDE71C08213846FDF766FD4FF2CA
:10485000040C01216046FDF760FD0D214FF430404E
:10486000FDF75BFD0D214BF20100FDF756FD0D211B
:104870004BF20200FDF751FD4FF43648342140461B
:10488000FDF74BFD34214BF20160FDF746FD34216D
:104890004BF20260FDF741FD4FF431490D214846CE
:1048A000FDF73BFD4BF2011A0D215046FDF735FD9A
:1048B0000D214BF20210FDF730FD34214FF437404B
:1048C000FDF72BFD34214BF20170FDF726FD34215D
:1048D0004BF20270FDF721FD00214FF43240FDF74D
:1048E0001CFD00214BF20120FDF717FD00214BF2CA
:1048F0000220FDF712FD24214FF43840FDF70DFD95
:1049000024214BF60100FDF708FD24214BF602009F
:10491000FDF703FD01214FF43F40FDF7FEFC00E0F1
:10492000FEE30F214FF43340FDF7F7FC0F214BF26C
:104930000130FDF7F2FC0F214BF20230FDF7EDFCE8
:1049400034214FF43940FDF7E8FC34214BF60110D7
:10495000FDF7E3FC34214BF60210FDF7DEFC0821E5
:104960004FF43540FDF7D9FC08214BF20150FDF71B
:10497000D4FC08214BF20250FDF7CFFC03214FF489
:104980004240FDF7CAFC24214FF43A40FDF7C5FC34
:1049900024214BF60120FDF7C0FC24214BF6022018
:1049A000FDF7BBFC00214FF43C40FDF7B6FC78213D
:1049B0004BF60140FDF7B1FC00214BF60240FDF73C
:1049C000ACFC00214FF43D40FDF7A7FC78214BF6ED
:1049D0000150FDF7A2FC00214BF60250FDF79DFCB3
:1049E00000214FF43E40FDF798FC64214BF6016036
:1049F000FDF793FC00214FF45140FDF78EFC33216D
:104A00004DF20110FDF789FC00214DF20210FDF777
:104A100084FC34214DF20310FDF77FFC00214DF2A0
:104A20000410FDF77AFC3A214DF20510FDF775FCF4
:104A300000214DF20610FDF770FC4A214DF20710DF
:104A4000FDF76BFC00214DF20810FDF766FC5C21C0
:104A50004DF20910FDF761FC00214DF20A10FDF73F
:104A60005CFC81214DF20B10FDF757FC00214DF24B
:104A70000C10FDF752FCA6214DF20D10FDF74DFC78
:104A800000214DF20E10FDF748FCE5214DF20F100C
:104A9000FDF743FC01214DF21010FDF73EFC132100
:104AA0004DF21110FDF739FC01214DF21210FDF706
:104AB00034FC54214DF21310FDF72FFC01214DF26F
:104AC0001410FDF72AFC82214DF21510FDF725FC8C
:104AD00001214DF21610FDF720FCCA214DF21710EE
:104AE000FDF71BFC02214DF21810FDF716FC00210A
:104AF0004DF21910FDF711FC02214DF21A10FDF7CD
:104B00000CFC01214DF21B10FDF707FC02214DF2B8
:104B10001C10FDF702FC34214DF21D10FDF7FDFBCA
:104B200002214DF21E10FDF7F8FB67214DF21F1018
:104B3000FDF7F3FB02214DF22010FDF7EEFB84217F
:104B40004DF22110FDF7E9FB02214DF22210FDF795
:104B5000E4FBA4214DF22310FDF7DFFB02214DF20F
:104B60002410FDF7DAFBB7214DF22510FDF7D5FB38
:104B700002214DF22610FDF7D0FBCF214DF2271078
:104B8000FDF7CBFB02214DF22810FDF7C6FBDE211D
:104B90004DF22910FDF7C1FB02214DF22A10FDF75D
:104BA000BCFBF2214DF22B10FDF7B7FB02214DF2B9
:104BB0002C10FDF7B2FBFE214DF22D10FDF7ADFBE1
:104BC00003214DF22E10FDF7A8FB10214DF22F10FE
:104BD000FDF7A3FB03214DF23010FDF79EFB3321BF
:104BE0004DF23110FDF799FB03214DF23210FDF724
:104BF00094FB6D214DF23310FDF78FFB00214FF434
:104C00005240FDF78AFB33214DF20120FDF785FB71
:104C100000214DF20220FDF780FB34214DF20320EC
:104C2000FDF77BFB00214DF20420FDF776FB3A21D6
:104C30004DF20520FDF771FB00214DF20620FDF736
:104C40006CFB4A214DF20720FDF767FB00214DF276
:104C50000820FDF762FB5C214DF20920FDF75DFBAA
:104C600000214DF20A20FDF758FB81214DF20B2067
:104C7000FDF753FB00214DF20C20FDF74EFBA62162
:104C80004DF20D20FDF749FB00214DF20E20FDF7FE
:104C900044FBE5214DF20F20FDF73FFB01214DF2D2
:104CA0001020FDF73AFB13214DF21120FDF735FBE3
:104CB00001214DF21220FDF730FB54214DF213205B
:104CC000FDF72BFB01214DF21420FDF726FB82217D
:104CD0004DF21520FDF721FB01214DF21620FDF7C5
:104CE0001CFBCA214DF21720FDF717FB02214DF2E4
:104CF0001820FDF712FB00214DF21920FDF70DFBE6
:104D000002214DF21A20FDF708FB01214DF21B2074
:104D1000FDF703FB02214DF21C20FDF7FEFA3421C2
:104D20004DF21D20FDF7F9FA02214DF21E20FDF78C
:104D3000F4FA67214DF21F20FDF7EFFA02214DF240
:104D40002020FDF7EAFA84214DF22120FDF7E5FA53
:104D500002214DF22220FDF7E0FAA4214DF223209A
:104D6000FDF7DBFA02214DF22420FDF7D6FAB72138
:104D70004DF22520FDF7D1FA02214DF22620FDF754
:104D8000CCFACF214DF22720FDF7C7FA02214DF2D0
:104D90002820FDF7C2FADE214DF22920FDF7BDFAE9
:104DA00002214DF22A20FDF7B8FAF2214DF22B2014
:104DB000FDF7B3FA02214DF22C20FDF7AEFAFE21E9
:104DC0004DF22D20FDF7A9FA03214DF22E20FDF71B
:104DD000A4FA10214DF22F20FDF79FFA03214DF286
:104DE0003020FDF79AFA33214DF23120FDF795FA84
:104DF00003214DF23220FDF790FA6D214DF2332060
:104E0000FDF78BFA00214FF45340FDF786FA33216A
:104E10004DF20130FDF781FA00214DF20230FDF72D
:104E20007CFA34214DF20330FDF777FA00214DF280
:104E30000430FDF772FA3A214DF20530FDF76DFAB4
:104E400000214DF20630FDF768FA4A214DF2073095
:104E5000FDF763FA00214DF20830FDF75EFA5C21A0
:104E60004DF20930FDF759FA00214DF20A30FDF7F5
:104E700054FA81214DF20B30FDF74FFA00214DF22B
:104E80000C30FDF74AFAA6214DF20D30FDF745FA38
:104E900000214DF20E30FDF740FAE5214DF20F30C2
:104EA000FDF73BFA01214DF21030FDF736FA1321E0
:104EB0004DF21130FDF731FA01214DF21230FDF7BC
:104EC0002CFA54214DF21330FDF727FA01214DF24F
:104ED0001430FDF722FA82214DF21530FDF71DFA4C
:104EE00001214DF21630FDF718FACA214DF21730A4
:104EF000FDF713FA02214DF21830FDF70EFA0021EA
:104F00004DF21930FDF709FA02214DF21A30FDF782
:104F100004FA01214DF21B30FDF7FFF902214DF299
:104F20001C30FDF7FAF934214DF21D30FDF7F5F98B
:104F300002214DF21E30FDF7F0F967214DF21F30CE
:104F4000FDF7EBF902214DF22030FDF7E6F984215F
:104F50004DF22130FDF7E1F902214DF22230FDF74B
:104F6000DCF9A4214DF22330FDF7D7F902214DF2EF
:104F70002430FDF7D2F9B7214DF22530FDF7CDF9F8
:104F800002214DF22630FDF7C8F9CF214DF227302E
:104F9000FDF7C3F902214DF22830FDF7BEF9DE21FD
:104FA0004DF22930FDF7B9F902214DF22A30FDF713
:104FB000B4F9F2214DF22B30FDF7AFF902214DF299
:104FC0002C30FDF7AAF9FE214DF22D30FDF7A5F9A1
:104FD00003214DF22E30FDF7A0F910214DF22F30B4
:104FE000FDF79BF903214DF23030FDF796F933219F
:104FF0004DF23130FDF791F903214DF23230FDF7DA
:105000008CF96D214DF23330FDF787F900214FF413
:105010005440FDF782F9332100E080E34DF2014076
:10502000FDF77BF900214DF20240FDF776F93421BE
:105030004DF20340FDF771F900214DF20440FDF7F8
:105040006CF93A214DF20540FDF767F900214DF268
:105050000640FDF762F94A214DF20740FDF75DF980
:1050600000214DF20840FDF758F95C214DF209404E
:10507000FDF753F900214DF20A40FDF74EF9812169
:105080004DF20B40FDF749F900214DF20C40FDF7C0
:1050900044F9A6214DF20D40FDF73FF900214DF2F4
:1050A0000E40FDF73AF9E5214DF20F40FDF735F9D5
:1050B00001214DF21040FDF730F913214DF211405E
:1050C000FDF72BF901214DF21240FDF726F954218D
:1050D0004DF21340FDF721F901214DF21440FDF787
:1050E0001CF982214DF21540FDF717F901214DF20F
:1050F0001640FDF712F9CA214DF21740FDF70DF9E0
:1051000002214DF21840FDF708F900214DF2194037
:10511000FDF703F902214DF21A40FDF7FEF800E019
:1051200001E301214DF21B40FDF7F7F802214DF29A
:105130001C40FDF7F2F834214DF21D40FDF7EDF86B
:1051400002214DF21E40FDF7E8F867214DF21F40A5
:10515000FDF7E3F802214DF22040FDF7DEF884214F
:105160004DF22140FDF7D9F802214DF22240FDF722
:10517000D4F8A4214DF22340FDF7CFF802214DF2DF
:105180002440FDF7CAF8B7214DF22540FDF7C5F8D8
:1051900002214DF22640FDF7C0F8CF214DF2274005
:1051A000FDF7BBF802214DF22840FDF7B6F8DE21ED
:1051B0004DF22940FDF7B1F802214DF22A40FDF7EA
:1051C000ACF8F2214DF22B40FDF7A7F802214DF289
:1051D0002C40FDF7A2F8FE214DF22D40FDF79DF881
:1051E00003214DF22E40FDF798F810214DF22F408B
:1051F000FDF793F803214DF23040FDF78EF833218F
:105200004DF23140FDF789F803214DF23240FDF7B0
:1052100084F86D214DF23340FDF77FF800214FF403
:105220005540FDF77AF833214DF20150FDF775F83E
:1052300000214DF20250FDF770F834214DF2035079
:10524000FDF76BF800214DF20450FDF766F83A21A6
:105250004DF20550FDF761F800214DF20650FDF7C3
:105260005CF84A214DF20750FDF757F800214DF246
:105270000850FDF752F85C214DF20950FDF74DF84A
:1052800000214DF20A50FDF748F881214DF20B50F4
:10529000FDF743F800214DF20C50FDF73EF8A62132
:1052A0004DF20D50FDF739F800214DF20E50FDF78B
:1052B00034F8E5214DF20F50FDF72FF801214DF2A2
:1052C0001050FDF72AF813214DF21150FDF725F883
:1052D00001214DF21250FDF720F854214DF21350E8
:1052E000FDF71BF801214DF21450FDF716F882214D
:1052F0004DF21550FDF711F801214DF21650FDF752
:105300000CF8CA214DF21750FDF707F802214DF2B3
:105310001850FDF702F800214DF21950FCF7FDFF7F
:1053200002214DF21A50FCF7F8FF01214DF21B50FB
:10533000FCF7F3FF02214DF21C50FCF7EEFF342185
:105340004DF21D50FCF7E9FF02214DF21E50FCF713
:10535000E4FF67214DF21F50FCF7DFFF02214DF201
:105360002050FCF7DAFF84214DF22150FCF7D5FFE5
:1053700002214DF22250FCF7D0FFA4214DF2235020
:10538000FCF7CBFF02214DF22450FCF7C6FFB721FA
:105390004DF22550FCF7C1FF02214DF22650FCF7DB
:1053A000BCFFCF214DF22750FCF7B7FF02214DF291
:1053B0002850FCF7B2FFDE214DF22950FCF7ADFF7B
:1053C00002214DF22A50FCF7A8FFF2214DF22B509A
:1053D000FCF7A3FF02214DF22C50FCF79EFFFE21AB
:1053E0004DF22D50FCF799FF03214DF22E50FCF7A2
:1053F00094FF10214DF22F50FCF78FFF03214DF247
:105400003050FCF78AFF33214DF23150FCF785FF15
:1054100003214DF23250FCF780FF6D214DF23350E5
:10542000FCF77BFF00214FF45640FCF776FF332159
:105430004DF20160FCF771FF00214DF20260FCF7B4
:105440006CFF34214DF20360FCF767FF00214DF241
:105450000460FCF762FF3A214DF20560FCF75DFF46
:1054600000214DF20660FCF758FF4A214DF207601B
:10547000FCF753FF00214DF20860FCF74EFF5C2162
:105480004DF20960FCF749FF00214DF20A60FCF77C
:1054900044FF81214DF20B60FCF73FFF00214DF2EC
:1054A0000C60FCF73AFFA6214DF20D60FCF735FFCA
:1054B00000214DF20E60FCF730FFE5214DF20F6048
:1054C000FCF72BFF01214DF21060FCF726FF1321A2
:1054D0004DF21160FCF721FF01214DF21260FCF743
:1054E0001CFF54214DF21360FCF717FF01214DF210
:1054F0001460FCF712FF82214DF21560FCF70DFFDE
:1055000001214DF21660FCF708FFCA214DF2176029
:10551000FCF703FF02214DF21860FCF7FEFE0021AC
:105520004DF21960FCF7F9FE02214DF21A60FCF70A
:10553000F4FE01214DF21B60FCF7EFFE02214DF25B
:105540001C60FCF7EAFE34214DF21D60FCF7E5FE1D
:1055500002214DF21E60FCF7E0FE67214DF21F6054
:10556000FCF7DBFE02214DF22060FCF7D6FE842121
:105570004DF22160FCF7D1FE02214DF22260FCF7D2
:10558000CCFEA4214DF22360FCF7C7FE02214DF2B0
:105590002460FCF7C2FEB7214DF22560FCF7BDFE8A
:1055A00002214DF22660FCF7B8FECF214DF22760B4
:1055B000FCF7B3FE02214DF22860FCF7AEFEDE21BF
:1055C0004DF22960FCF7A9FE02214DF22A60FCF79A
:1055D000A4FEF2214DF22B60FCF79FFE02214DF25A
:1055E0002C60FCF79AFEFE214DF22D60FCF795FE33
:1055F00003214DF22E60FCF790FE10214DF22F603A
:10560000FCF78BFE03214DF23060FCF786FE332160
:105610004DF23160FCF781FE03214DF23260FCF760
:105620007CFE6D214DF23360FCF777FE552120465C
:10563000FCF773FEAA212846FCF76FFE5221304684
:10564000FCF76BFE08213846FCF767FE0021604638
:10565000FCF763FECC214846FCF75FFE0021504674
:10566000FCF75BFE05214046FCF757FE70214FF426
:105670003740FCF752FE70214BF20170FCF74DFEF3
:1056800001214FF43840FCF748FE03214BF601009E
:10569000FCF743FE03214BF60200FCF73EFE03211C
:1056A0004BF60300FCF739FE02214FF43C40FCF7B7
:1056B00034FE00214BF60140FCF72FFE00214BF693
:1056C0000240FCF72AFED0214FF44940FCF725FEAA
:1056D00002214CF60110FCF720FE50214CF602107E
:1056E000FCF71BFE50214CF60310FCF716FE502170
:1056F0004CF60410FCF711FE00214FF45450FCF757
:105700000CFE55214FF46850FCF707FE4FF488500B
:10571000FCF7B6FD782002F0B0F84FF42450FCF707
:10572000AFFD01F047BAA0F513414FF480774FF475
:10573000E06940F2022A40F23F144FF4274625392F
:1057400028D040F20775C91E7ED04FF48876083104
:105750007BD011397AD0A0F5A841083977D0A0F5CF
:10576000A8514FF44076053972D0B1F5204170D080
:10577000B1F580516ED0A0F5094189396BD0A0F503
:105780008A41313968D0091F67D0A0F5C851633903
:105790007DD0C6E747F6F001E520FCF7BEFD3946AF
:1057A0000120FCF7BAFD49460220FCF7B6FD41F2A4
:1057B00030010320FCF7B1FD00210420FCF7ADFD12
:1057C00051460820FCF7A9FD00210920FCF7A5FDA2
:1057D00000210A20FCF7A1FD00210C20FCF79DFD13
:1057E00000210D20FCF799FD00210F20FCF795FD0D
:1057F00000211020FCF791FD07211120FCF78DFD01
:1058000000211220FCF789FD00211320FCF785FD03
:1058100000210720FCF781FD41F290611020FCF788
:105820007CFD40F227211120FCF777FD9D211220FD
:10583000FCF773FD4FF4C8511320FCF76EFD2521D2
:105840002920FCF76AFD09E07CE037E1DAE1AEE20D
:1058500049E3FDE3FDE3FDE3FDE3FDE30D212B2043
:10586000FCF75BFD07213020FCF757FD40F20331C8
:105870003120FCF752FD03213220FCF74EFD40F2AF
:1058800006213520FCF749FD0821362000E0FDE324
:10589000FCF743FD40F206413720FCF73EFD4FF494
:1058A00041713820FCF739FD07213920FCF735FD1F
:1058B00040F202613C20FCF730FD08213D20FCF75E
:1058C0002CFD00215020FCF728FDEF215120FCF792
:1058D00024FD00215220FCF720FD21465320FCF737
:1058E0001CFD31466020FCF718FD01216120FCF70A
:1058F00014FD00216A20FCF710FD00218020FCF738
:105900000CFD00218120FCF708FD00218220FCF71E
:1059100004FD00218320FCF700FD00218420FCF71A
:10592000FCFC00218520FCF7F8FC10219020FCF7FE
:10593000F4FC4FF4C0619220FCF7EFFC40F233110D
:105940000720FDE341F28F01EC20FCF7E6FC41F279
:105950003421EF20FCF7E1FC39460120FCF7DDFCA7
:1059600049460220FCF7D9FC41F230010320FCF744
:10597000D4FC00210420FCF7D0FC51460820FCF7A1
:10598000CCFC00210920FCF7C8FC00210A20FCF710
:10599000C4FC01210C20FCF7C0FC00210D20FCF709
:1059A000BCFC00210F20FCF7B8FC00211020FCF704
:1059B000B4FC07211120FCF7B0FC00211220FCF7F9
:1059C000ACFC00211320FCF7A8FC01210720FCF708
:1059D000A4FC322001F068FF41F290411020FCF756
:1059E0009CFC40F227211120FCF797FC322001F0AB
:1059F0005BFF8A211220FCF790FC322001F054FF5B
:105A00004FF4D0511320FCF788FC06212920FCF725
:105A100084FC0D212B20FCF780FC322001F044FF98
:105A200000212020FCF779FC00212120FCF775FCE7
:105A3000322001F039FF00213020FCF76EFC40F2EB
:105A400004613120FCF769FC40F205313220FCF79B
:105A500064FC00213520FCF760FC40F6094136204B
:105A6000FCF75BFC4FF401713720FCF756FC40F269
:105A700001313820FCF751FC29463920FCF74DFC58
:105A800000213C20FCF749FC40F60A213D20FCF7B0
:105A900044FC322001F008FF00215020FCF73DFCBF
:105AA000EF215120FCF739FC00215220FCF735FC96
:105AB00021465320FCF731FC31464DE100210846D8
:105AC000FCF72BFC39460120FCF727FC4946022055
:105AD000FCF723FC41F230010320FCF71EFC0021FF
